{"abi":[{"type":"constructor","inputs":[],"stateMutability":"nonpayable"},{"type":"function","name":"MAX_DEPOSIT","inputs":[],"outputs":[{"name":"","type":"uint256","internalType":"uint256"}],"stateMutability":"view"},{"type":"function","name":"THAW_PERIOD","inputs":[],"outputs":[{"name":"","type":"uint256","internalType":"uint256"}],"stateMutability":"view"},{"type":"function","name":"authorizationUsed","inputs":[{"name":"","type":"address","internalType":"address"},{"name":"","type":"bytes32","internalType":"bytes32"}],"outputs":[{"name":"","type":"bool","internalType":"bool"}],"stateMutability":"view"},{"type":"function","name":"claimVoucher","inputs":[{"name":"voucher","type":"tuple","internalType":"struct DeferredPaymentEscrow.Voucher","components":[{"name":"id","type":"bytes32","internalType":"bytes32"},{"name":"buyer","type":"address","internalType":"address"},{"name":"seller","type":"address","internalType":"address"},{"name":"valueAggregate","type":"uint256","internalType":"uint256"},{"name":"asset","type":"address","internalType":"address"},{"name":"timestamp","type":"uint64","internalType":"uint64"},{"name":"nonce","type":"uint256","internalType":"uint256"},{"name":"escrow","type":"address","internalType":"address"},{"name":"chainId","type":"uint256","internalType":"uint256"}]},{"name":"signature","type":"bytes","internalType":"bytes"}],"outputs":[],"stateMutability":"nonpayable"},{"type":"function","name":"claimVoucherBatch","inputs":[{"name":"vouchers","type":"tuple[]","internalType":"struct DeferredPaymentEscrow.Voucher[]","components":[{"name":"id","type":"bytes32","internalType":"bytes32"},{"name":"buyer","type":"address","internalType":"address"},{"name":"seller","type":"address","internalType":"address"},{"name":"valueAggregate","type":"uint256","internalType":"uint256"},{"name":"asset","type":"address","internalType":"address"},{"name":"timestamp","type":"uint64","internalType":"uint64"},{"name":"nonce","type":"uint256","internalType":"uint256"},{"name":"escrow","type":"address","internalType":"address"},{"name":"chainId","type":"uint256","internalType":"uint256"}]},{"name":"signatures","type":"bytes[]","internalType":"bytes[]"}],"outputs":[],"stateMutability":"nonpayable"},{"type":"function","name":"claimedAmounts","inputs":[{"name":"","type":"address","internalType":"address"},{"name":"","type":"address","internalType":"address"},{"name":"","type":"address","internalType":"address"}],"outputs":[{"name":"","type":"uint256","internalType":"uint256"}],"stateMutability":"view"},{"type":"function","name":"deposit","inputs":[{"name":"seller","type":"address","internalType":"address"},{"name":"asset","type":"address","internalType":"address"},{"name":"amount","type":"uint256","internalType":"uint256"}],"outputs":[],"stateMutability":"nonpayable"},{"type":"function","name":"depositWithAuthorization","inputs":[{"name":"auth","type":"tuple","internalType":"struct DeferredPaymentEscrow.DepositAuthorization","components":[{"name":"buyer","type":"address","internalType":"address"},{"name":"seller","type":"address","internalType":"address"},{"name":"asset","type":"address","internalType":"address"},{"name":"amount","type":"uint256","internalType":"uint256"},{"name":"validAfter","type":"uint256","internalType":"uint256"},{"name":"validBefore","type":"uint256","internalType":"uint256"},{"name":"nonce","type":"bytes32","internalType":"bytes32"}]},{"name":"signature","type":"bytes","internalType":"bytes"}],"outputs":[],"stateMutability":"nonpayable"},{"type":"function","name":"depositWithPermit","inputs":[{"name":"seller","type":"address","internalType":"address"},{"name":"asset","type":"address","internalType":"address"},{"name":"amount","type":"uint256","internalType":"uint256"},{"name":"deadline","type":"uint256","internalType":"uint256"},{"name":"v","type":"uint8","internalType":"uint8"},{"name":"r","type":"bytes32","internalType":"bytes32"},{"name":"s","type":"bytes32","internalType":"bytes32"}],"outputs":[],"stateMutability":"nonpayable"},{"type":"function","name":"deposits","inputs":[{"name":"","type":"address","internalType":"address"},{"name":"","type":"address","internalType":"address"},{"name":"","type":"address","internalType":"address"}],"outputs":[{"name":"","type":"uint256","internalType":"uint256"}],"stateMutability":"view"},{"type":"function","name":"eip712Domain","inputs":[],"outputs":[{"name":"fields","type":"bytes1","internalType":"bytes1"},{"name":"name","type":"string","internalType":"string"},{"name":"version","type":"string","internalType":"string"},{"name":"chainId","type":"uint256","internalType":"uint256"},{"name":"verifyingContract","type":"address","internalType":"address"},{"name":"salt","type":"bytes32","internalType":"bytes32"},{"name":"extensions","type":"uint256[]","internalType":"uint256[]"}],"stateMutability":"view"},{"type":"function","name":"flush","inputs":[{"name":"request","type":"tuple","internalType":"struct DeferredPaymentEscrow.FlushRequest","components":[{"name":"buyer","type":"address","internalType":"address"},{"name":"seller","type":"address","internalType":"address"},{"name":"asset","type":"address","internalType":"address"},{"name":"validAfter","type":"uint256","internalType":"uint256"},{"name":"validBefore","type":"uint256","internalType":"uint256"},{"name":"nonce","type":"bytes32","internalType":"bytes32"}]},{"name":"signature","type":"bytes","internalType":"bytes"}],"outputs":[],"stateMutability":"nonpayable"},{"type":"function","name":"getAvailableBalance","inputs":[{"name":"buyer","type":"address","internalType":"address"},{"name":"seller","type":"address","internalType":"address"},{"name":"asset","type":"address","internalType":"address"}],"outputs":[{"name":"","type":"uint256","internalType":"uint256"}],"stateMutability":"view"},{"type":"function","name":"getClaimedAmount","inputs":[{"name":"buyer","type":"address","internalType":"address"},{"name":"seller","type":"address","internalType":"address"},{"name":"asset","type":"address","internalType":"address"}],"outputs":[{"name":"","type":"uint256","internalType":"uint256"}],"stateMutability":"view"},{"type":"function","name":"getDepositAmount","inputs":[{"name":"buyer","type":"address","internalType":"address"},{"name":"seller","type":"address","internalType":"address"},{"name":"asset","type":"address","internalType":"address"}],"outputs":[{"name":"","type":"uint256","internalType":"uint256"}],"stateMutability":"view"},{"type":"function","name":"thaw","inputs":[{"name":"seller","type":"address","internalType":"address"},{"name":"asset","type":"address","internalType":"address"},{"name":"amount","type":"uint256","internalType":"uint256"}],"outputs":[],"stateMutability":"nonpayable"},{"type":"function","name":"thaws","inputs":[{"name":"","type":"address","internalType":"address"},{"name":"","type":"address","internalType":"address"},{"name":"","type":"address","internalType":"address"}],"outputs":[{"name":"amount","type":"uint256","internalType":"uint256"},{"name":"thawTime","type":"uint256","internalType":"uint256"}],"stateMutability":"view"},{"type":"function","name":"voucherClaimed","inputs":[{"name":"","type":"bytes32","internalType":"bytes32"},{"name":"","type":"uint256","internalType":"uint256"}],"outputs":[{"name":"","type":"bool","internalType":"bool"}],"stateMutability":"view"},{"type":"function","name":"withdraw","inputs":[{"name":"seller","type":"address","internalType":"address"},{"name":"asset","type":"address","internalType":"address"}],"outputs":[],"stateMutability":"nonpayable"},{"type":"event","name":"Deposited","inputs":[{"name":"buyer","type":"address","indexed":true,"internalType":"address"},{"name":"seller","type":"address","indexed":true,"internalType":"address"},{"name":"asset","type":"address","indexed":true,"internalType":"address"},{"name":"amount","type":"uint256","indexed":false,"internalType":"uint256"}],"anonymous":false},{"type":"event","name":"EIP712DomainChanged","inputs":[],"anonymous":false},{"type":"event","name":"ThawStarted","inputs":[{"name":"buyer","type":"address","indexed":true,"internalType":"address"},{"name":"seller","type":"address","indexed":true,"internalType":"address"},{"name":"asset","type":"address","indexed":true,"internalType":"address"},{"name":"amount","type":"uint256","indexed":false,"internalType":"uint256"}],"anonymous":false},{"type":"event","name":"VoucherClaimed","inputs":[{"name":"voucherId","type":"bytes32","indexed":true,"internalType":"bytes32"},{"name":"nonce","type":"uint256","indexed":false,"internalType":"uint256"},{"name":"buyer","type":"address","indexed":true,"internalType":"address"},{"name":"seller","type":"address","indexed":true,"internalType":"address"},{"name":"amount","type":"uint256","indexed":false,"internalType":"uint256"}],"anonymous":false},{"type":"event","name":"Withdrawn","inputs":[{"name":"buyer","type":"address","indexed":true,"internalType":"address"},{"name":"seller","type":"address","indexed":true,"internalType":"address"},{"name":"asset","type":"address","indexed":true,"internalType":"address"},{"name":"amount","type":"uint256","indexed":false,"internalType":"uint256"}],"anonymous":false},{"type":"error","name":"AuthorizationUsed","inputs":[]},{"type":"error","name":"DepositTooLarge","inputs":[]},{"type":"error","name":"ECDSAInvalidSignature","inputs":[]},{"type":"error","name":"ECDSAInvalidSignatureLength","inputs":[{"name":"length","type":"uint256","internalType":"uint256"}]},{"type":"error","name":"ECDSAInvalidSignatureS","inputs":[{"name":"s","type":"bytes32","internalType":"bytes32"}]},{"type":"error","name":"InsufficientBalance","inputs":[]},{"type":"error","name":"InvalidAuthorization","inputs":[]},{"type":"error","name":"InvalidShortString","inputs":[]},{"type":"error","name":"InvalidSignature","inputs":[]},{"type":"error","name":"InvalidVoucher","inputs":[]},{"type":"error","name":"ReentrancyGuardReentrantCall","inputs":[]},{"type":"error","name":"StringTooLong","inputs":[{"name":"str","type":"string","internalType":"string"}]},{"type":"error","name":"ThawNotReady","inputs":[]},{"type":"error","name":"VoucherAlreadyClaimed","inputs":[]}],"bytecode":{"object":"0x6101608060405234620001795762000017816200017d565b601281526020810171583430324465666572726564457363726f7760701b81526040519162000046836200017d565b6001835260208301603160f81b8152620000608262000199565b92610120938452620000728562000363565b92610140938452519020938460e05251902091610100938385524660a0526040519360208501917f8b73c3c69bb8fe3d512ecc4cf759cc79239f7b179b0ffacaa9a75d522b39400f8352604086015260608501524660808501523060a085015260a0845260c084019380851060018060401b038611176200016557846040525190206080523060c05260017f9b779b17422d0df92223018b32b4d1fa46e071723d6817e2486d003becc55f00556120cc93846200050b853960805184611c54015260a05184611d1f015260c05184611c1e015260e05184611ca301525183611cc9015251826109ee01525181610a170152f35b634e487b7160e01b5f52604160045260245ffd5b5f80fd5b604081019081106001600160401b038211176200016557604052565b805160209081811015620002335750601f825111620001d45780825192015190808310620001c657501790565b825f19910360031b1b161790565b90604051809263305a27a960e01b82528060048301528251908160248401525f935b82851062000219575050604492505f838284010152601f80199101168101030190fd5b8481018201518686016044015293810193859350620001f6565b906001600160401b03821162000165575f54926001938481811c9116801562000358575b838210146200034457601f81116200030e575b5081601f8411600114620002a857509282939183925f946200029c575b50501b915f199060031b1c1916175f5560ff90565b015192505f8062000287565b919083601f1981165f8052845f20945f905b88838310620002f35750505010620002da575b505050811b015f5560ff90565b01515f1960f88460031b161c191690555f8080620002cd565b858701518855909601959485019487935090810190620002ba565b5f805284601f845f20920160051c820191601f860160051c015b828110620003385750506200026a565b5f815501859062000328565b634e487b7160e01b5f52602260045260245ffd5b90607f169062000257565b805160209081811015620003ef5750601f825111620003905780825192015190808310620001c657501790565b90604051809263305a27a960e01b82528060048301528251908160248401525f935b828510620003d5575050604492505f838284010152601f80199101168101030190fd5b8481018201518686016044015293810193859350620003b2565b9192916001600160401b038111620001655760019182548381811c91168015620004ff575b828210146200034457601f8111620004c9575b5080601f8311600114620004655750819293945f9262000459575b50505f19600383901b1c191690821b17905560ff90565b015190505f8062000442565b90601f19831695845f52825f20925f905b888210620004b1575050838596971062000498575b505050811b01905560ff90565b01515f1960f88460031b161c191690555f80806200048b565b80878596829496860151815501950193019062000476565b835f5283601f835f20920160051c820191601f850160051c015b828110620004f357505062000427565b5f8155018490620004e3565b90607f16906200041456fe60806040818152600480361015610014575f80fd5b5f9260e05f35811c91826306181c7e14610f315750816310a9248e14610ef4578163162ce8bc14610eaf5781632b74ab9214610e4f5781633d6a71d214610d2c5781634496eb0014610ce057816356ade9ee14610c805781635d24973714610c245781638340f54914610af257816384b0196e146109d757816386906267146106955781638ef59739146104b4575080639c8a63af14610496578063c400048114610438578063d711dfb4146103cc578063dd5967c3146103ae578063ee2578ab1461034c578063f93f1cd01461027f5763f940e385146100f3575f80fd5b3461027b578160031936011261027b5761010b610f64565b90610114610f7a565b9261011d611424565b338552602090600582528086209360018060a01b0380911694855f528352815f20951694855f528252805f20600182519161015783611124565b8054835201548084830152421061026b57826101e291518095338a5260058352848a20885f528352845f20895f528352896001865f208281550155338a5260028352848a20885f528352845f20895f528352845f206101b7838254611046565b9055845163a9059cbb60e01b8152339181019182526020820192909252909283918291604090910190565b03818a8a5af1801561026157907fa4195c37c2947bbe89165f03e320b6903116f0b10d8cfdb522330f7ce6f9fa24939291610234575b50519283523392a460015f805160206120778339815191525580f35b61025390833d851161025a575b61024b818361116f565b8101906111d5565b505f610218565b503d610241565b82513d89823e3d90fd5b8151631f5a571960e31b81528490fd5b8280fd5b50903461027b5761028f36610fd3565b9192909361029e858533611067565b831161033e576201518042019081421161032b575060018251916102c183611124565b84835260208301908152338852600560205283882095828060a01b0380911696875f52602052845f20971696875f52602052835f209251835551910155519081527f2a0ffc39d85d1dc57fd66f8d526aa36a2c61b1670811fa3523e57268432d4dbb60203392a480f35b634e487b7160e01b875260119052602486fd5b9051631e9acf1760e31b8152fd5b5050346103aa5760603660031901126103aa5760209161036a610f64565b90610373610f7a565b61037b610f90565b928460018060a01b0393848093168152600288522091165f528452825f2091165f528252805f20549051908152f35b5080fd5b5050346103aa57816003193601126103aa5760209051629896808152f35b828434610435576060366003190112610435576103e7610f64565b906103f0610f7a565b6103f8610f90565b928460018060a01b039384809316815260056020522091165f52602052825f2091165f52602052805f206001815491015482519182526020820152f35b80fd5b5050346103aa5760603660031901126103aa57602091610456610f64565b9061045f610f7a565b610467610f90565b928460018060a01b0393848093168152600388522091165f528452825f2091165f528252805f20549051908152f35b5050346103aa57816003193601126103aa5760209051620151808152f35b849391503461068257366003190112610682576104cf610f64565b906104d8610f7a565b92604435916084359160ff8316809303610682576104f4611424565b335f5260209260028452825f209560018060a01b0380911696875f528552835f20971696875f5284526298968061052e86855f2054611417565b1161068657863b156106825782519063d505accf60e01b825233838301523060248301528560448301526064356064830152608482015260a43560a482015260c43560c48201525f8160e481838b5af180156106785761064a575b5081516323b872dd60e01b815233918101918252306020830152604082018590529083908290819060600103818a8a5af1801561026157907f4174a9435a04d04d274c76779cad136a41fde6937c56241c09ab9d3c7064a1a993929161062d575b5033875260028252808720855f528252805f20865f528252805f20610610858254611417565b9055519283523392a460015f805160206120778339815191525580f35b61064390833d851161025a5761024b818361116f565b50876105ea565b9096506001600160401b0381116106655781525f9582610589565b604187634e487b7160e01b5f525260245ffd5b83513d5f823e3d90fd5b5f80fd5b50905163c56d46d360e01b8152fd5b83915034610682576101003660031901818112610682578213610682576001600160401b039360e435858111610682576106d29036908301610fa6565b6106dd949194611424565b6084359485421080156109cc575b6109bc576001600160a01b0395866107016110ce565b165f5260209560068752885f209460c43595865f52885260ff8a5f2054166109ac579987918a9b6107339b9a9b6110ce565b948c61073d6110e4565b816107466110fa565b916064359f8281519a8b019b7f60cbf2f3a72067b10a97ab861e86afeb9f66227cbd63d10c78d8ffab211c826c8d5216908a01521660608801521660808601528b60a086015260c085015260a43590840152868184015282526101208201908282109082111761066557926107cb6107e295936107d3936107d9968e52519020611bf5565b923691611190565b90611d45565b90929192611d7f565b85806107ec6110ce565b1691160361099d57846107fd6110ce565b165f5260068352855f20905f528252845f20600160ff19825416179055836108236110ce565b165f5260028252845f20846108366110e4565b165f528252845f20846108476110fa565b165f5282526298968061085d84875f2054611417565b1161098f579080836108b893866108726110fa565b16905f61087d6110ce565b8a516323b872dd60e01b81526001600160a01b0390911692810192835230602084015260408301949094529295869384929091839160600190565b03925af1918215610985577f4174a9435a04d04d274c76779cad136a41fde6937c56241c09ab9d3c7064a1a992610968575b50836108f46110ce565b165f5260028152845f20846109076110e4565b165f528152845f20846109186110fa565b165f528152845f2061092b848254611417565b90556109356110ce565b9380806109406110e4565b976109496110fa565b9051968752169616941692a460015f8051602061207783398151915255005b61097e90823d841161025a5761024b818361116f565b50856108ea565b85513d5f823e3d90fd5b845163c56d46d360e01b8152fd5b508451638baa579f60e01b8152fd5b8951630c5cc05960e11b81528790fd5b8651632ce87eeb60e01b81528490fd5b5060a43542116106eb565b828434610682575f36600319011261068257610a127f0000000000000000000000000000000000000000000000000000000000000000611e02565b610a3b7f0000000000000000000000000000000000000000000000000000000000000000611f23565b9180519260209260208501958587106001600160401b03881117610adf5750959493918060209286610a9493525f8552610a878251998a99600f60f81b8b5280878c01528a0190611008565b9188830390890152611008565b914660608701523060808701525f60a087015285830360c087015251918281520192915f5b828110610ac857505050500390f35b835185528695509381019392810192600101610ab9565b604190634e487b7160e01b5f525260245ffd5b50503461068257610b0236610fd3565b91929093610b0e611424565b335f5260209160028352815f209460018060a01b0380911695865f528452825f20961695865f52835262989680610b4885845f2054611417565b11610c165781516323b872dd60e01b815233918101918252306020830152604082018590529083908290819060600103815f8a5af18015610c0c57907f4174a9435a04d04d274c76779cad136a41fde6937c56241c09ab9d3c7064a1a9939291610bef575b50335f5260028252805f20855f528252805f20865f528252805f20610bd3858254611417565b9055519283523392a460015f8051602061207783398151915255005b610c0590833d851161025a5761024b818361116f565b5086610bad565b82513d5f823e3d90fd5b905163c56d46d360e01b8152fd5b9050346106825736600319019081126106825760c0136106825760c4356001600160401b03811161068257610c6d91610c5f91369101610fa6565b90610c68611424565b6111ed565b60015f8051602061207783398151915255005b833461068257606036600319011261068257602090610c9d610f64565b610ca5610f7a565b90610cae610f90565b6001600160a01b039182165f908152600286528481209383168152928552838320911682528352819020549051908152f35b82346106825736600319016101408112610682576101201361068257610124356001600160401b03811161068257610c6d91610d1e91369101610fa6565b90610d27611424565b611453565b5050346106825781600319360112610682578035916001600160401b038084116106825736602385011215610682578383013581811161068257602490610120933683868402890101116106825782359084821161068257366023830112156106825781870135968588116106825760059136868a60051b8601011161068257610db4611424565b888503610e4257509296368390036042190193905f5b898110610de45760015f8051602061207783398151915255005b81811015610e30578681851b860101358681121561068257850190878201359189831161068257604401823603811361068257600192610e2a918a8f8e860201016117cb565b01610dca565b86603284634e487b7160e01b5f52525ffd5b516336b3edeb60e11b8152fd5b833461068257606036600319011261068257602090610e6c610f64565b610e74610f7a565b90610e7d610f90565b6001600160a01b039182165f908152600386528481209383168152928552838320911682528352819020549051908152f35b83346106825780600319360112610682576020906001600160a01b03610ed3610f64565b165f5260068252805f206024355f52825260ff815f20541690519015158152f35b833461068257606036600319011261068257602090610f2a610f14610f64565b610f1c610f7a565b610f24610f90565b91611067565b9051908152f35b849084346106825782600319360112610682576020928160ff92355f528452805f206024355f5284525f20541615158152f35b600435906001600160a01b038216820361068257565b602435906001600160a01b038216820361068257565b604435906001600160a01b038216820361068257565b9181601f84011215610682578235916001600160401b038311610682576020838186019501011161068257565b6060906003190112610682576001600160a01b0390600435828116810361068257916024359081168103610682579060443590565b91908251928382525f5b848110611032575050825f602080949584010152601f8019910116010190565b602081830181015184830182015201611012565b9190820391821161105357565b634e487b7160e01b5f52601160045260245ffd5b909160018060a01b0380921692835f526020906002825260409380855f20921691825f528352845f20931692835f528252835f2054945f5260058252835f20905f528152825f20915f52525f20548082106110c8576110c591611046565b90565b50505f90565b6004356001600160a01b03811681036106825790565b6024356001600160a01b03811681036106825790565b6044356001600160a01b03811681036106825790565b356001600160a01b03811681036106825790565b604081019081106001600160401b0382111761113f57604052565b634e487b7160e01b5f52604160045260245ffd5b61016081019081106001600160401b0382111761113f57604052565b90601f801991011681019081106001600160401b0382111761113f57604052565b9291926001600160401b03821161113f57604051916111b9601f8201601f19166020018461116f565b829481845281830111610682578281602093845f960137010152565b90816020910312610682575180151581036106825790565b9060643591824210801561140c575b6113fa576001600160a01b03916004358381169283820361068257835f5260209260068452604091825f2060a43590815f52865260ff845f2054166113e957602435918883169889840361068257604435948186169b8c8703610682578b918b918e8a51948d8601947feec5ab637478c3b0ff5cfb11f7ddf9e1c351b18478e250beb4e655312737c3ea86528c8701526060860152608085015260a084015260843560c08401528560e084015260e083526101008301928084106001600160401b0385111761113f578c956107cb6107d9946107d3936112e0978e52519020611bf5565b16036113d8579061130f9291875f5260068752845f20905f528652835f20600160ff1982541617905584611067565b9182156113cf57838361137392875f5260028352845f20895f528352845f208a5f528352845f20611341838254611046565b9055845163a9059cbb60e01b81526001600160a01b039091166004820152602481019190915291829081906044820190565b03815f8b5af18015610c0c57907fa4195c37c2947bbe89165f03e320b6903116f0b10d8cfdb522330f7ce6f9fa24949392916113b2575b5051908152a4565b6113c890843d861161025a5761024b818361116f565b505f6113aa565b50505050505050565b8351638baa579f60e01b8152600490fd5b8351630c5cc05960e11b8152600490fd5b604051632ce87eeb60e01b8152600490fd5b5060843542116111fc565b9190820180921161105357565b5f8051602061207783398151915260028154146114415760029055565b604051633ee5aeb560e01b8152600490fd5b60e4356001600160a01b038116810361068257306001600160a01b038216036117b9574661010435036117b95760049283355f528360205260405f2060c4355f5260205260ff60405f2054166117a8576024356001600160a01b0381169003610682576044356001600160a01b0381169003610682576084356001600160a01b03811690036106825760a4356001600160401b038116810361068257604080517fa5fa2e4ad2b04f459914c1c2a458afdee7c0323d3caf036ecf97ff8e3487e946602082019081528735928201929092526001600160a01b03602435811660608301526044358116608083015260643560a0830152608435811660c08301526001600160401b039390931660e082015260c43561010082015293909116610120840152610104356101408085019190915283526115a7936107d9936107d3926107cb9161159f81611153565b519020611bf5565b6001600160a01b036024358116911603611799576001600160a01b0360243581165f908152600360209081526040808320604435851684528252808320608435909416835292905220546115fd90606435611046565b9081156117955781611616608435604435602435611067565b106117865780355f9081526020828152604080832060c43584528252808320805460ff191660011790556024356001600160a01b0390811684526003835281842060443582168552835281842060843590911684529091529020805461167d908490611417565b90556001600160a01b0360243581165f90815260026020908152604080832060443585168452825280832060843590941683529290522080546116c1908490611046565b90556040805163a9059cbb60e01b81526001600160a01b036044351683820190815260208181018690529192839182910103815f6084356001600160a01b03165af1801561177b5761175c575b506040805160c435815260208101939093526001600160a01b036044358116936024359091169235917f3e6da3303d2cc128089d7663a02408ba61a448a9d1ac9d55d29f5bd8b5043d4791a4565b6117749060203d60201161025a5761024b818361116f565b505f61170e565b6040513d5f823e3d90fd5b604051631e9acf1760e31b8152fd5b5050565b604051638baa579f60e01b8152fd5b6040516303fb640360e31b81528490fd5b6040516336b3edeb60e11b8152600490fd5b91906117d960e08401611110565b306001600160a01b03909116036117b95746610100840135036117b95782355f52600460205260405f2060c08401355f5260205260ff60405f205416611be35761182560208401611110565b9161183260408501611110565b9161183f60808601611110565b9060a08601356001600160401b03811681036106825761191f956107d9956001600160401b036107cb936107d39661187960e08d01611110565b93604051957fa5fa2e4ad2b04f459914c1c2a458afdee7c0323d3caf036ecf97ff8e3487e94660208801528d35604088015260018060a01b0316606087015260018060a01b0316608086015260608c013560a086015260018060a01b031660c08501521660e083015260c089013561010083015260018060a01b031661012082015261014061010089013581830152815261191381611153565b60208151910120611bf5565b6001600160a01b0361193360208401611110565b166001600160a01b0390911603611bd1576001600160a01b0361195860208301611110565b165f52600360205260405f2060018060a01b0361197760408401611110565b165f5260205260405f2060018060a01b0361199460808401611110565b165f526020526119ac60405f20546060830135611046565b90811561179557816119db6119c360208401611110565b6119cf60408501611110565b610f2460808601611110565b10611bbf5780355f52600460205260405f2060c08201355f5260205260405f20600160ff1982541617905560018060a01b03611a1960208301611110565b165f52600360205260405f2060018060a01b03611a3860408401611110565b165f5260205260405f2060018060a01b03611a5560808401611110565b165f5260205260405f20611a6a838254611417565b90556001600160a01b03611a8060208301611110565b165f52600260205260405f2060018060a01b03611a9f60408401611110565b165f5260205260405f2060018060a01b03611abc60808401611110565b165f5260205260405f20611ad1838254611046565b9055611b316020836001600160a01b03611aed60808601611110565b16611afa60408601611110565b60405163a9059cbb60e01b81526001600160a01b0390911660048201526024810192909252909283919082905f9082906044820190565b03925af1801561177b57611ba0575b50611b4d60208201611110565b917f3e6da3303d2cc128089d7663a02408ba61a448a9d1ac9d55d29f5bd8b5043d476040611b7c818501611110565b815160c0860135815260208101949094526001600160a01b039081169516933592a4565b611bb89060203d60201161025a5761024b818361116f565b505f611b40565b604051631e9acf1760e31b8152600490fd5b604051638baa579f60e01b8152600490fd5b6040516303fb640360e31b8152600490fd5b604290611c00611c1b565b906040519161190160f01b8352600283015260228201522090565b307f00000000000000000000000000000000000000000000000000000000000000006001600160a01b03161480611d1c575b15611c76577f000000000000000000000000000000000000000000000000000000000000000090565b60405160208101907f8b73c3c69bb8fe3d512ecc4cf759cc79239f7b179b0ffacaa9a75d522b39400f82527f000000000000000000000000000000000000000000000000000000000000000060408201527f000000000000000000000000000000000000000000000000000000000000000060608201524660808201523060a082015260a0815260c081018181106001600160401b0382111761113f5760405251902090565b507f00000000000000000000000000000000000000000000000000000000000000004614611c4d565b8151919060418303611d7557611d6e9250602082015190606060408401519301515f1a90611ff4565b9192909190565b50505f9160029190565b6004811015611dee5780611d91575050565b60018103611dab5760405163f645eedf60e01b8152600490fd5b60028103611dcc5760405163fce698f760e01b815260048101839052602490fd5b600314611dd65750565b602490604051906335e2f38360e21b82526004820152fd5b634e487b7160e01b5f52602160045260245ffd5b60ff8114611e405760ff811690601f8211611e2e5760405191611e2483611124565b8252602082015290565b604051632cd44ac360e21b8152600490fd5b506040515f8054906001908260011c60018416928315611f19575b6020948583108514611f05578287528694908115611ee55750600114611e8a575b50506110c59250038261116f565b5f8080527f290decd9548b62a8d60345a988386fc84ba6bc95484008f6362f93160ef3e56395935091905b818310611ecd5750506110c593508201015f80611e7c565b85548784018501529485019486945091830191611eb5565b9150506110c594925060ff191682840152151560051b8201015f80611e7c565b634e487b7160e01b5f52602260045260245ffd5b90607f1690611e5b565b60ff8114611f455760ff811690601f8211611e2e5760405191611e2483611124565b506040515f60018054918260011c60018416928315611fea575b6020948583108514611f05578287528694908115611ee55750600114611f8d5750506110c59250038261116f565b9093915060015f527fb10e2d527612073b26eecdfd717e6a320cf44b4afac2b0732d9fcbe2b7fa0cf6935f915b818310611fd25750506110c593508201015f80611e7c565b85548784018501529485019486945091830191611fba565b90607f1690611f5f565b91907f7fffffffffffffffffffffffffffffff5d576e7357a4501ddfe92f46681b20a0841161206b579160209360809260ff5f9560405194855216868401526040830152606082015282805260015afa1561177b575f516001600160a01b0381161561206157905f905f90565b505f906001905f90565b5050505f916003919056fe9b779b17422d0df92223018b32b4d1fa46e071723d6817e2486d003becc55f00a26469706673582212202ab302ce9e892a0676ccc8f014199b15383f8ab9fc8250254c21bacabf0df4ca64736f6c63430008180033","linkReferences":{}},"methodIdentifiers":{"MAX_DEPOSIT()":"dd5967c3","THAW_PERIOD()":"9c8a63af","authorizationUsed(address,bytes32)":"162ce8bc","claimVoucher((bytes32,address,address,uint256,address,uint64,uint256,address,uint256),bytes)":"4496eb00","claimVoucherBatch((bytes32,address,address,uint256,address,uint64,uint256,address,uint256)[],bytes[])":"3d6a71d2","claimedAmounts(address,address,address)":"c4000481","deposit(address,address,uint256)":"8340f549","depositWithAuthorization((address,address,address,uint256,uint256,uint256,bytes32),bytes)":"86906267","depositWithPermit(address,address,uint256,uint256,uint8,bytes32,bytes32)":"8ef59739","deposits(address,address,address)":"ee2578ab","eip712Domain()":"84b0196e","flush((address,address,address,uint256,uint256,bytes32),bytes)":"5d249737","getAvailableBalance(address,address,address)":"10a9248e","getClaimedAmount(address,address,address)":"2b74ab92","getDepositAmount(address,address,address)":"56ade9ee","thaw(address,address,uint256)":"f93f1cd0","thaws(address,address,address)":"d711dfb4","voucherClaimed(bytes32,uint256)":"06181c7e","withdraw(address,address)":"f940e385"},"id":28}