{"abi":[{"type":"constructor","inputs":[],"stateMutability":"nonpayable"},{"type":"function","name":"MAX_DEPOSIT","inputs":[],"outputs":[{"name":"","type":"uint256","internalType":"uint256"}],"stateMutability":"view"},{"type":"function","name":"THAW_PERIOD","inputs":[],"outputs":[{"name":"","type":"uint256","internalType":"uint256"}],"stateMutability":"view"},{"type":"function","name":"UPGRADE_INTERFACE_VERSION","inputs":[],"outputs":[{"name":"","type":"string","internalType":"string"}],"stateMutability":"view"},{"type":"function","name":"authorizationUsed","inputs":[{"name":"","type":"address","internalType":"address"},{"name":"","type":"bytes32","internalType":"bytes32"}],"outputs":[{"name":"","type":"bool","internalType":"bool"}],"stateMutability":"view"},{"type":"function","name":"claimVoucher","inputs":[{"name":"voucher","type":"tuple","internalType":"struct DeferredPaymentEscrowUpgradeable.Voucher","components":[{"name":"id","type":"bytes32","internalType":"bytes32"},{"name":"buyer","type":"address","internalType":"address"},{"name":"seller","type":"address","internalType":"address"},{"name":"valueAggregate","type":"uint256","internalType":"uint256"},{"name":"asset","type":"address","internalType":"address"},{"name":"timestamp","type":"uint64","internalType":"uint64"},{"name":"nonce","type":"uint256","internalType":"uint256"},{"name":"escrow","type":"address","internalType":"address"},{"name":"chainId","type":"uint256","internalType":"uint256"}]},{"name":"signature","type":"bytes","internalType":"bytes"}],"outputs":[],"stateMutability":"nonpayable"},{"type":"function","name":"claimVoucherBatch","inputs":[{"name":"vouchers","type":"tuple[]","internalType":"struct DeferredPaymentEscrowUpgradeable.Voucher[]","components":[{"name":"id","type":"bytes32","internalType":"bytes32"},{"name":"buyer","type":"address","internalType":"address"},{"name":"seller","type":"address","internalType":"address"},{"name":"valueAggregate","type":"uint256","internalType":"uint256"},{"name":"asset","type":"address","internalType":"address"},{"name":"timestamp","type":"uint64","internalType":"uint64"},{"name":"nonce","type":"uint256","internalType":"uint256"},{"name":"escrow","type":"address","internalType":"address"},{"name":"chainId","type":"uint256","internalType":"uint256"}]},{"name":"signatures","type":"bytes[]","internalType":"bytes[]"}],"outputs":[],"stateMutability":"nonpayable"},{"type":"function","name":"claimedAmounts","inputs":[{"name":"","type":"address","internalType":"address"},{"name":"","type":"address","internalType":"address"},{"name":"","type":"address","internalType":"address"}],"outputs":[{"name":"","type":"uint256","internalType":"uint256"}],"stateMutability":"view"},{"type":"function","name":"deposit","inputs":[{"name":"seller","type":"address","internalType":"address"},{"name":"asset","type":"address","internalType":"address"},{"name":"amount","type":"uint256","internalType":"uint256"}],"outputs":[],"stateMutability":"nonpayable"},{"type":"function","name":"depositWithAuthorization","inputs":[{"name":"auth","type":"tuple","internalType":"struct DeferredPaymentEscrowUpgradeable.DepositAuthorization","components":[{"name":"buyer","type":"address","internalType":"address"},{"name":"seller","type":"address","internalType":"address"},{"name":"asset","type":"address","internalType":"address"},{"name":"amount","type":"uint256","internalType":"uint256"},{"name":"validAfter","type":"uint256","internalType":"uint256"},{"name":"validBefore","type":"uint256","internalType":"uint256"},{"name":"nonce","type":"bytes32","internalType":"bytes32"}]},{"name":"signature","type":"bytes","internalType":"bytes"}],"outputs":[],"stateMutability":"nonpayable"},{"type":"function","name":"depositWithPermit","inputs":[{"name":"seller","type":"address","internalType":"address"},{"name":"asset","type":"address","internalType":"address"},{"name":"amount","type":"uint256","internalType":"uint256"},{"name":"deadline","type":"uint256","internalType":"uint256"},{"name":"v","type":"uint8","internalType":"uint8"},{"name":"r","type":"bytes32","internalType":"bytes32"},{"name":"s","type":"bytes32","internalType":"bytes32"}],"outputs":[],"stateMutability":"nonpayable"},{"type":"function","name":"deposits","inputs":[{"name":"","type":"address","internalType":"address"},{"name":"","type":"address","internalType":"address"},{"name":"","type":"address","internalType":"address"}],"outputs":[{"name":"","type":"uint256","internalType":"uint256"}],"stateMutability":"view"},{"type":"function","name":"eip712Domain","inputs":[],"outputs":[{"name":"fields","type":"bytes1","internalType":"bytes1"},{"name":"name","type":"string","internalType":"string"},{"name":"version","type":"string","internalType":"string"},{"name":"chainId","type":"uint256","internalType":"uint256"},{"name":"verifyingContract","type":"address","internalType":"address"},{"name":"salt","type":"bytes32","internalType":"bytes32"},{"name":"extensions","type":"uint256[]","internalType":"uint256[]"}],"stateMutability":"view"},{"type":"function","name":"flush","inputs":[{"name":"request","type":"tuple","internalType":"struct DeferredPaymentEscrowUpgradeable.FlushRequest","components":[{"name":"buyer","type":"address","internalType":"address"},{"name":"seller","type":"address","internalType":"address"},{"name":"asset","type":"address","internalType":"address"},{"name":"validAfter","type":"uint256","internalType":"uint256"},{"name":"validBefore","type":"uint256","internalType":"uint256"},{"name":"nonce","type":"bytes32","internalType":"bytes32"}]},{"name":"signature","type":"bytes","internalType":"bytes"}],"outputs":[],"stateMutability":"nonpayable"},{"type":"function","name":"getAvailableBalance","inputs":[{"name":"buyer","type":"address","internalType":"address"},{"name":"seller","type":"address","internalType":"address"},{"name":"asset","type":"address","internalType":"address"}],"outputs":[{"name":"","type":"uint256","internalType":"uint256"}],"stateMutability":"view"},{"type":"function","name":"getClaimedAmount","inputs":[{"name":"buyer","type":"address","internalType":"address"},{"name":"seller","type":"address","internalType":"address"},{"name":"asset","type":"address","internalType":"address"}],"outputs":[{"name":"","type":"uint256","internalType":"uint256"}],"stateMutability":"view"},{"type":"function","name":"getDepositAmount","inputs":[{"name":"buyer","type":"address","internalType":"address"},{"name":"seller","type":"address","internalType":"address"},{"name":"asset","type":"address","internalType":"address"}],"outputs":[{"name":"","type":"uint256","internalType":"uint256"}],"stateMutability":"view"},{"type":"function","name":"getImplementation","inputs":[],"outputs":[{"name":"","type":"address","internalType":"address"}],"stateMutability":"view"},{"type":"function","name":"initialize","inputs":[{"name":"_owner","type":"address","internalType":"address"}],"outputs":[],"stateMutability":"nonpayable"},{"type":"function","name":"owner","inputs":[],"outputs":[{"name":"","type":"address","internalType":"address"}],"stateMutability":"view"},{"type":"function","name":"proxiableUUID","inputs":[],"outputs":[{"name":"","type":"bytes32","internalType":"bytes32"}],"stateMutability":"view"},{"type":"function","name":"renounceOwnership","inputs":[],"outputs":[],"stateMutability":"nonpayable"},{"type":"function","name":"thaw","inputs":[{"name":"seller","type":"address","internalType":"address"},{"name":"asset","type":"address","internalType":"address"},{"name":"amount","type":"uint256","internalType":"uint256"}],"outputs":[],"stateMutability":"nonpayable"},{"type":"function","name":"thaws","inputs":[{"name":"","type":"address","internalType":"address"},{"name":"","type":"address","internalType":"address"},{"name":"","type":"address","internalType":"address"}],"outputs":[{"name":"amount","type":"uint256","internalType":"uint256"},{"name":"thawTime","type":"uint256","internalType":"uint256"}],"stateMutability":"view"},{"type":"function","name":"transferOwnership","inputs":[{"name":"newOwner","type":"address","internalType":"address"}],"outputs":[],"stateMutability":"nonpayable"},{"type":"function","name":"upgradeToAndCall","inputs":[{"name":"newImplementation","type":"address","internalType":"address"},{"name":"data","type":"bytes","internalType":"bytes"}],"outputs":[],"stateMutability":"payable"},{"type":"function","name":"version","inputs":[],"outputs":[{"name":"","type":"string","internalType":"string"}],"stateMutability":"pure"},{"type":"function","name":"voucherClaimed","inputs":[{"name":"","type":"bytes32","internalType":"bytes32"},{"name":"","type":"uint256","internalType":"uint256"}],"outputs":[{"name":"","type":"bool","internalType":"bool"}],"stateMutability":"view"},{"type":"function","name":"withdraw","inputs":[{"name":"seller","type":"address","internalType":"address"},{"name":"asset","type":"address","internalType":"address"}],"outputs":[],"stateMutability":"nonpayable"},{"type":"event","name":"Deposited","inputs":[{"name":"buyer","type":"address","indexed":true,"internalType":"address"},{"name":"seller","type":"address","indexed":true,"internalType":"address"},{"name":"asset","type":"address","indexed":true,"internalType":"address"},{"name":"amount","type":"uint256","indexed":false,"internalType":"uint256"}],"anonymous":false},{"type":"event","name":"EIP712DomainChanged","inputs":[],"anonymous":false},{"type":"event","name":"Initialized","inputs":[{"name":"version","type":"uint64","indexed":false,"internalType":"uint64"}],"anonymous":false},{"type":"event","name":"OwnershipTransferred","inputs":[{"name":"previousOwner","type":"address","indexed":true,"internalType":"address"},{"name":"newOwner","type":"address","indexed":true,"internalType":"address"}],"anonymous":false},{"type":"event","name":"ThawStarted","inputs":[{"name":"buyer","type":"address","indexed":true,"internalType":"address"},{"name":"seller","type":"address","indexed":true,"internalType":"address"},{"name":"asset","type":"address","indexed":true,"internalType":"address"},{"name":"amount","type":"uint256","indexed":false,"internalType":"uint256"}],"anonymous":false},{"type":"event","name":"Upgraded","inputs":[{"name":"implementation","type":"address","indexed":true,"internalType":"address"}],"anonymous":false},{"type":"event","name":"Upgraded","inputs":[{"name":"implementation","type":"address","indexed":true,"internalType":"address"},{"name":"version","type":"string","indexed":false,"internalType":"string"}],"anonymous":false},{"type":"event","name":"VoucherClaimed","inputs":[{"name":"voucherId","type":"bytes32","indexed":true,"internalType":"bytes32"},{"name":"nonce","type":"uint256","indexed":false,"internalType":"uint256"},{"name":"buyer","type":"address","indexed":true,"internalType":"address"},{"name":"seller","type":"address","indexed":true,"internalType":"address"},{"name":"amount","type":"uint256","indexed":false,"internalType":"uint256"}],"anonymous":false},{"type":"event","name":"Withdrawn","inputs":[{"name":"buyer","type":"address","indexed":true,"internalType":"address"},{"name":"seller","type":"address","indexed":true,"internalType":"address"},{"name":"asset","type":"address","indexed":true,"internalType":"address"},{"name":"amount","type":"uint256","indexed":false,"internalType":"uint256"}],"anonymous":false},{"type":"error","name":"AddressEmptyCode","inputs":[{"name":"target","type":"address","internalType":"address"}]},{"type":"error","name":"AuthorizationUsed","inputs":[]},{"type":"error","name":"DepositTooLarge","inputs":[]},{"type":"error","name":"ECDSAInvalidSignature","inputs":[]},{"type":"error","name":"ECDSAInvalidSignatureLength","inputs":[{"name":"length","type":"uint256","internalType":"uint256"}]},{"type":"error","name":"ECDSAInvalidSignatureS","inputs":[{"name":"s","type":"bytes32","internalType":"bytes32"}]},{"type":"error","name":"ERC1967InvalidImplementation","inputs":[{"name":"implementation","type":"address","internalType":"address"}]},{"type":"error","name":"ERC1967NonPayable","inputs":[]},{"type":"error","name":"FailedCall","inputs":[]},{"type":"error","name":"InsufficientBalance","inputs":[]},{"type":"error","name":"InvalidAuthorization","inputs":[]},{"type":"error","name":"InvalidInitialization","inputs":[]},{"type":"error","name":"InvalidSignature","inputs":[]},{"type":"error","name":"InvalidVoucher","inputs":[]},{"type":"error","name":"NotInitializing","inputs":[]},{"type":"error","name":"OwnableInvalidOwner","inputs":[{"name":"owner","type":"address","internalType":"address"}]},{"type":"error","name":"OwnableUnauthorizedAccount","inputs":[{"name":"account","type":"address","internalType":"address"}]},{"type":"error","name":"ReentrancyGuardReentrantCall","inputs":[]},{"type":"error","name":"ThawNotReady","inputs":[]},{"type":"error","name":"UUPSUnauthorizedCallContext","inputs":[]},{"type":"error","name":"UUPSUnsupportedProxiableUUID","inputs":[{"name":"slot","type":"bytes32","internalType":"bytes32"}]},{"type":"error","name":"VoucherAlreadyClaimed","inputs":[]}],"bytecode":{"object":"0x60a080604052346100cd57306080527ff0c57e16840df040f15088dc2f81fe391c3923bec73e23a9662efc9c229c6a009081549060ff8260401c166100be57506001600160401b036002600160401b031982821601610079575b604051612b819081620000d282396080518181816113fe015261149f0152f35b6001600160401b031990911681179091556040519081527fc7f505b2f371ae2175ee4913f4499e1f2633a7b5936321eed1cdaeb6115181d290602090a15f8080610059565b63f92ee8a960e01b8152600490fd5b5f80fdfe60806040818152600480361015610014575f80fd5b5f9260e05f35811c91826306181c7e146118725750816310a9248e14611835578163162ce8bc146117f15781632b74ab92146117915781633d6a71d21461166e5781634496eb00146116225781634f1ef2861461144f57816352d1902d146113ea57816354fd4d50146113a657816356ade9ee146113475781635d249737146112eb578163715018a6146112845781638340f5491461115457816384b0196e14610fe95781638690626714610cab5781638da5cb5b14610c775781638ef5973914610a98575080639c8a63af14610a7a578063aaf10f4214610a45578063ad3cb1cc146109fc578063c40004811461099e578063c4d66de8146104c6578063d711dfb41461045d578063dd5967c31461043f578063ee2578ab146103de578063f2fde38b146103ae578063f93f1cd0146102e15763f940e38514610156575f80fd5b346102dd57816003193601126102dd5761016e6118a6565b906101776118bc565b92610180611de3565b338552602090600382528086209360018060a01b0380911694855f528352815f20951694855f528252805f2060018251916101ba83611915565b805483520154808483015242106102cd578261024491518095338a5260038352848a20885f528352845f20895f528352896001865f208281550155338a52898352848a20885f528352845f20895f528352845f20610219838254611a39565b9055845163a9059cbb60e01b8152339181019182526020820192909252909283918291604090910190565b03818a8a5af180156102c357907fa4195c37c2947bbe89165f03e320b6903116f0b10d8cfdb522330f7ce6f9fa24939291610296575b50519283523392a460015f80516020612b2c8339815191525580f35b6102b590833d85116102bc575b6102ad8183611960565b810190611b16565b505f61027a565b503d6102a3565b82513d89823e3d90fd5b8151631f5a571960e31b81528490fd5b8280fd5b5090346102dd576102f136611a04565b91929093610300858533611a5a565b83116103a0576201518042019081421161038d5750600182519161032383611915565b84835260208301908152338852600360205283882095828060a01b0380911696875f52602052845f20971696875f52602052835f209251835551910155519081527f2a0ffc39d85d1dc57fd66f8d526aa36a2c61b1670811fa3523e57268432d4dbb60203392a480f35b634e487b7160e01b875260119052602486fd5b9051631e9acf1760e31b8152fd5b83346103db5760203660031901126103db576103d86103cb6118a6565b6103d3612614565b611d72565b80f35b80fd5b50503461043b57606036600319011261043b576020916103fc6118a6565b906104056118bc565b61040d6118d2565b928460018060a01b03938480931681528088522091165f528452825f2091165f528252805f20549051908152f35b5080fd5b50503461043b578160031936011261043b5760209051629896808152f35b8284346103db5760603660031901126103db576104786118a6565b906104816118bc565b6104896118d2565b928460018060a01b039384809316815260036020522091165f52602052825f2091165f52602052805f206001815491015482519182526020820152f35b50346102dd5760203660031901126102dd576104e06118a6565b7ff0c57e16840df040f15088dc2f81fe391c3923bec73e23a9662efc9c229c6a009182549160ff83861c1615916001600160401b0380851694851580610997575b6001809714908161098d575b159081610984575b506109745767ffffffffffffffff1981168617875584610955575b5086519161055d83611915565b6012835271583430324465666572726564457363726f7760701b602084015287519261058884611915565b868452603160f81b602085015261059d6128e8565b6105a56128e8565b805183811161094257807fa16a46d94261c7517cc8ff89f61c0ce93598e3c849801011dee649a6a557d102926105db845461264c565b601f81116108d0575b506020908d601f84116001146108545792610849575b50505f19600383901b1c191690881b1790555b825191821161083657507fa16a46d94261c7517cc8ff89f61c0ce93598e3c849801011dee649a6a557d10391610643835461264c565b601f81116107d1575b50602090601f831160011461074f576106f3949392918a9183610744575b50505f19600383901b1c191690861b1790555b867fa16a46d94261c7517cc8ff89f61c0ce93598e3c849801011dee649a6a557d10055867fa16a46d94261c7517cc8ff89f61c0ce93598e3c849801011dee649a6a557d101556106cb6128e8565b6106d36128e8565b835f80516020612b2c833981519152556106eb6128e8565b6103d36128e8565b6106fb6128e8565b610703578380f35b7fc7f505b2f371ae2175ee4913f4499e1f2633a7b5936321eed1cdaeb6115181d29260209268ff000000000000000019815416905551908152a15f80808380f35b015190505f8061066a565b838a5293929186917f5f9ce34815f8e11431c7bb75a8e6886a91478f7ffc1dbb0a98dc240fddd76b7590601f1983168c5b8181106107b9575096836106f398106107a1575b505050811b01905561067d565b01515f1960f88460031b161c191690555f8080610794565b8289015184558a959093019260209283019201610780565b838a527f5f9ce34815f8e11431c7bb75a8e6886a91478f7ffc1dbb0a98dc240fddd76b75601f840160051c8101916020851061082c575b601f0160051c019087905b82811061082157505061064c565b8b8155018790610813565b9091508190610808565b634e487b7160e01b895260419052602488fd5b015190505f806105fa565b91908b9450601f1984168684527f42ad5d3e1f2e6e70edcf6d991b8a3023d3fca8047a131592f9edb9fd9b89d57d935b8181106108b8575084116108a0575b505050811b01905561060d565b01515f1960f88460031b161c191690555f8080610893565b8284015185558d969094019360209384019301610884565b909150838d527f42ad5d3e1f2e6e70edcf6d991b8a3023d3fca8047a131592f9edb9fd9b89d57d601f840160051c81019160208510610938575b8e85949392601f8e930160051c0192905b83821061092a575050506105e4565b81558594508c91018f61091b565b909150819061090a565b634e487b7160e01b8b526041835260248bfd5b68ffffffffffffffffff1916680100000000000000011786555f610550565b875163f92ee8a960e01b81528390fd5b9050155f610535565b303b15915061052d565b5084610521565b50503461043b57606036600319011261043b576020916109bc6118a6565b906109c56118bc565b6109cd6118d2565b928460018060a01b0393848093168152600188522091165f528452825f2091165f528252805f20549051908152f35b50503461043b578160031936011261043b578051610a4191610a1d82611915565b60058252640352e302e360dc1b6020830152519182916020835260208301906119c6565b0390f35b50503461043b578160031936011261043b575f80516020612b0c8339815191525490516001600160a01b039091168152602090f35b50503461043b578160031936011261043b5760209051620151808152f35b8493915034610c6457366003190112610c6457610ab36118a6565b90610abc6118bc565b92604435916084359160ff8316809303610c6457610ad8611de3565b335f526020925f8452825f209560018060a01b0380911696875f528552835f20971696875f52845262989680610b1186855f2054611d65565b11610c6857863b15610c645782519063d505accf60e01b825233838301523060248301528560448301526064356064830152608482015260a43560a482015260c43560c48201525f8160e481838b5af18015610c5a57610c2c575b5081516323b872dd60e01b815233918101918252306020830152604082018590529083908290819060600103818a8a5af180156102c357907f4174a9435a04d04d274c76779cad136a41fde6937c56241c09ab9d3c7064a1a9939291610c0f575b50338752868252808720855f528252805f20865f528252805f20610bf2858254611d65565b9055519283523392a460015f80516020612b2c8339815191525580f35b610c2590833d85116102bc576102ad8183611960565b5087610bcd565b9096506001600160401b038111610c475781525f9582610b6c565b604187634e487b7160e01b5f525260245ffd5b83513d5f823e3d90fd5b5f80fd5b50905163c56d46d360e01b8152fd5b8334610c64575f366003190112610c64575f80516020612aec8339815191525490516001600160a01b039091168152602090f35b83915034610c64576101003660031901818112610c64578213610c64576001600160401b039360e435858111610c6457610ce890369083016118e8565b610cf3949194611de3565b608435948542108015610fde575b610fce576001600160a01b039586610d17611ac0565b165f52602095858752885f209460c43595865f52885260ff8a5f205416610fbe579987918a9b610d489b9a9b611ac0565b948c610d52611ad6565b81610d5b611aec565b916064359f8281519a8b019b7f60cbf2f3a72067b10a97ab861e86afeb9f66227cbd63d10c78d8ffab211c826c8d5216908a01521660608801521660808601528b60a086015260c085015260a435908401528681840152825261012082019082821090821117610c475792610de0610df79593610de893610dee968e52519020612585565b923691611981565b9061282b565b90929192612865565b8580610e01611ac0565b16911603610faf5784610e12611ac0565b165f52818352855f20905f528252845f20600160ff1982541617905583610e37611ac0565b165f525f8252845f2084610e49611ad6565b165f528252845f2084610e5a611aec565b165f52825262989680610e7084875f2054611d65565b11610fa157908083610ecb9386610e85611aec565b16905f610e90611ac0565b8a516323b872dd60e01b81526001600160a01b0390911692810192835230602084015260408301949094529295869384929091839160600190565b03925af1918215610f97577f4174a9435a04d04d274c76779cad136a41fde6937c56241c09ab9d3c7064a1a992610f7a575b5083610f07611ac0565b165f525f8152845f2084610f19611ad6565b165f528152845f2084610f2a611aec565b165f528152845f20610f3d848254611d65565b9055610f47611ac0565b938080610f52611ad6565b97610f5b611aec565b9051968752169616941692a460015f80516020612b2c83398151915255005b610f9090823d84116102bc576102ad8183611960565b5085610efd565b85513d5f823e3d90fd5b845163c56d46d360e01b8152fd5b508451638baa579f60e01b8152fd5b8951630c5cc05960e11b81528790fd5b8651632ce87eeb60e01b81528490fd5b5060a4354211610d01565b828434610c64575f366003190112610c64577fa16a46d94261c7517cc8ff89f61c0ce93598e3c849801011dee649a6a557d10054158061112b575b156110f057611031612684565b61103961276c565b9180519260209260208501958587106001600160401b038811176110dd575095949391806020928661109293525f85526110858251998a99600f60f81b8b5280878c01528a01906119c6565b91888303908901526119c6565b914660608701523060808701525f60a087015285830360c087015251918281520192915f5b8281106110c657505050500390f35b8351855286955093810193928101926001016110b7565b604190634e487b7160e01b5f525260245ffd5b906020606492519162461bcd60e51b835282015260156024820152741152540dcc4c8e88155b9a5b9a5d1a585b1a5e9959605a1b6044820152fd5b507fa16a46d94261c7517cc8ff89f61c0ce93598e3c849801011dee649a6a557d1015415611024565b505034610c645761116436611a04565b91929093611170611de3565b335f526020915f8352815f209460018060a01b0380911695865f528452825f20961695865f528352629896806111a985845f2054611d65565b116112765781516323b872dd60e01b815233918101918252306020830152604082018590529083908290819060600103815f8a5af1801561126c57907f4174a9435a04d04d274c76779cad136a41fde6937c56241c09ab9d3c7064a1a993929161124f575b50335f525f8252805f20855f528252805f20865f528252805f20611233858254611d65565b9055519283523392a460015f80516020612b2c83398151915255005b61126590833d85116102bc576102ad8183611960565b508661120e565b82513d5f823e3d90fd5b905163c56d46d360e01b8152fd5b34610c64575f366003190112610c645761129c612614565b5f80516020612aec83398151915280546001600160a01b031981169091555f906001600160a01b03167f8be0079c531659141344cd1fd0a4f28419497f9722a3daafe3b4186f6b6457e08280a3005b905034610c64573660031901908112610c645760c013610c645760c4356001600160401b038111610c645761133491611326913691016118e8565b9061132f611de3565b611b2e565b60015f80516020612b2c83398151915255005b8334610c64576060366003190112610c64576020906113646118a6565b61136c6118bc565b906113756118d2565b6001600160a01b039182165f9081528086528481209383168152928552838320911682528352819020549051908152f35b8334610c64575f366003190112610c64578051610a41916113c682611915565b60058252640312e302e360dc1b6020830152519182916020835260208301906119c6565b828434610c64575f366003190112610c64577f00000000000000000000000000000000000000000000000000000000000000006001600160a01b0316300361144257602090515f80516020612b0c8339815191528152f35b5163703e46dd60e11b8152fd5b505081600319360112610c64576114646118a6565b916024356001600160401b038111610c645736602382011215610c64576114949036906024818601359101611981565b906001600160a01b037f00000000000000000000000000000000000000000000000000000000000000008116308114908115611607575b506115f7576114d8612614565b8416918151946352d1902d60e01b86526020868681875afa5f96816115c3575b5061151457505051634c9c8ce360e01b81529182015260249150fd5b838593875f80516020612b0c833981519152908181036115ad5750833b156115965780546001600160a01b0319168317905551907fbc7cd75a20ee27fd9adebab32041f755214dbc6bffa90cc0225b39da2e5c2d3b5f80a2825115611580575061157e9250612929565b005b9150503461158a57005b63b398979f60e01b8152fd5b8151634c9c8ce360e01b8152808701849052602490fd5b86602491845191632a87526960e21b8352820152fd5b9096506020813d6020116115ef575b816115df60209383611960565b81010312610c64575195876114f8565b3d91506115d2565b815163703e46dd60e11b81528490fd5b9050815f80516020612b0c83398151915254161415866114cb565b8234610c645736600319016101408112610c645761012013610c6457610124356001600160401b038111610c645761133491611660913691016118e8565b90611669611de3565b611e12565b505034610c645781600319360112610c64578035916001600160401b03808411610c645736602385011215610c645783830135818111610c645760249061012093368386840289010111610c6457823590848211610c645736602383011215610c64578187013596858811610c645760059136868a60051b86010111610c64576116f6611de3565b88850361178457509296368390036042190193905f5b8981106117265760015f80516020612b2c83398151915255005b81811015611772578681851b8601013586811215610c64578501908782013591898311610c64576044018236038113610c645760019261176c918a8f8e86020101612195565b0161170c565b86603284634e487b7160e01b5f52525ffd5b516336b3edeb60e11b8152fd5b8334610c64576060366003190112610c64576020906117ae6118a6565b6117b66118bc565b906117bf6118d2565b6001600160a01b039182165f908152600186528481209383168152928552838320911682528352819020549051908152f35b828434610c645780600319360112610c64576020916001600160a01b036118166118a6565b165f528252805f206024355f52825260ff815f20541690519015158152f35b8334610c64576060366003190112610c645760209061186b6118556118a6565b61185d6118bc565b6118656118d2565b91611a5a565b9051908152f35b84908434610c645782600319360112610c645760209260ff91355f5260028452805f206024355f5284525f20541615158152f35b600435906001600160a01b0382168203610c6457565b602435906001600160a01b0382168203610c6457565b604435906001600160a01b0382168203610c6457565b9181601f84011215610c64578235916001600160401b038311610c645760208381860195010111610c6457565b604081019081106001600160401b0382111761193057604052565b634e487b7160e01b5f52604160045260245ffd5b61016081019081106001600160401b0382111761193057604052565b90601f801991011681019081106001600160401b0382111761193057604052565b9291926001600160401b03821161193057604051916119aa601f8201601f191660200184611960565b829481845281830111610c64578281602093845f960137010152565b91908251928382525f5b8481106119f0575050825f602080949584010152601f8019910116010190565b6020818301810151848301820152016119d0565b6060906003190112610c64576001600160a01b03906004358281168103610c6457916024359081168103610c64579060443590565b91908203918211611a4657565b634e487b7160e01b5f52601160045260245ffd5b909160018060a01b0380921692835f526020905f825260409380855f20921691825f528352845f20931692835f528252835f2054945f5260038252835f20905f528152825f20915f52525f2054808210611aba57611ab791611a39565b90565b50505f90565b6004356001600160a01b0381168103610c645790565b6024356001600160a01b0381168103610c645790565b6044356001600160a01b0381168103610c645790565b356001600160a01b0381168103610c645790565b90816020910312610c6457518015158103610c645790565b90606435918242108015611d5a575b611d48576001600160a01b0360048035828116939290848103610c6457845f52602093838552604092835f2060a43590815f52875260ff855f205416611d385760243591808316998a8403610c6457604435948286169c8d8703610c64578a8c918f8f8c51938401947feec5ab637478c3b0ff5cfb11f7ddf9e1c351b18478e250beb4e655312737c3ea86528d8501526060840152608083015260a082015260843560c08201528560e082015260e0815261010081018181106001600160401b03821117611d2557611c2393610de08f97969394610dee95610de8948f52519020612585565b1603611d155790611c519291885f52868852855f20905f528752845f20600160ff1982541617905583611a5a565b928315611d0b5783918591875f525f8352845f20895f528352845f208a5f528352845f20611c80858254611a39565b9055845163a9059cbb60e01b81526001600160a01b039092169082019081526020810193909352918290819060400103815f8b5af1801561126c57907fa4195c37c2947bbe89165f03e320b6903116f0b10d8cfdb522330f7ce6f9fa2494939291611cee575b5051908152a4565b611d0490843d86116102bc576102ad8183611960565b505f611ce6565b5050505050505050565b8451638baa579f60e01b81528690fd5b60418c634e487b7160e01b5f525260245ffd5b8451630c5cc05960e11b81528690fd5b604051632ce87eeb60e01b8152600490fd5b506084354211611b3d565b91908201809211611a4657565b6001600160a01b03908116908115611dcb575f80516020612aec83398151915280546001600160a01b031981168417909155167f8be0079c531659141344cd1fd0a4f28419497f9722a3daafe3b4186f6b6457e05f80a3565b604051631e4fbdf760e01b81525f6004820152602490fd5b5f80516020612b2c8339815191526002815414611e005760029055565b604051633ee5aeb560e01b8152600490fd5b9060e435906001600160a01b0382168203610c6457306001600160a01b0383160361218357466101043503612183576004355f52600260205260405f2060c4355f5260205260ff60405f205416612171576024356001600160a01b0381169003610c64576044356001600160a01b0381169003610c64576084356001600160a01b0381169003610c645760a4356001600160401b0381168103610c6457604080517fa5fa2e4ad2b04f459914c1c2a458afdee7c0323d3caf036ecf97ff8e3487e94660208201908152600435928201929092526001600160a01b03602435811660608301526044358116608083015260643560a0830152608435811660c08301526001600160401b039390931660e082015260c4356101008201529390911661012084015261010435610140808501919091528352611f6893610dee93610de892610de091611f6081611944565b519020612585565b6001600160a01b03602435811691160361215f576001600160a01b0360243581165f90815260016020908152604080832060443585168452825280832060843590941683529290522054611fbe90606435611a39565b801561215c5780611fd6608435604435602435611a5a565b1061214a576004355f52600260205260405f2060c4355f5260205260405f20600160ff1982541617905560018060a01b03602435165f52600160205260405f2060018060a01b03604435165f5260205260405f2060018060a01b03608435165f5260205260405f20612049828254611d65565b90556001600160a01b0360243581165f90815260208181526040808320604435851684528252808320608435909416835292905220805461208b908390611a39565b905560405163a9059cbb60e01b81526001600160a01b0360448035821660048401526024830184905260209183919082905f90608435165af1801561213f57612120575b506040805160c435815260208101929092526001600160a01b0360443581169260243590911691600435917f3e6da3303d2cc128089d7663a02408ba61a448a9d1ac9d55d29f5bd8b5043d479190a4565b6121389060203d6020116102bc576102ad8183611960565b505f6120cf565b6040513d5f823e3d90fd5b604051631e9acf1760e31b8152600490fd5b50565b604051638baa579f60e01b8152600490fd5b6040516303fb640360e31b8152600490fd5b6040516336b3edeb60e11b8152600490fd5b906121a260e08301611b02565b306001600160a01b03909116036121835746610100830135036121835781355f52600260205260405f2060c08301355f5260205260ff60405f205416612171576121ee60208301611b02565b9060408301936121fd85611b02565b9161220a60808601611b02565b9060a08601356001600160401b0381168103610c64576122ea95610dee956001600160401b03610de093610de89661224460e08d01611b02565b93604051957fa5fa2e4ad2b04f459914c1c2a458afdee7c0323d3caf036ecf97ff8e3487e94660208801528d35604088015260018060a01b0316606087015260018060a01b0316608086015260608c013560a086015260018060a01b031660c08501521660e083015260c089013561010083015260018060a01b03166101208201526101406101008901358183015281526122de81611944565b60208151910120612585565b6001600160a01b036122fe60208401611b02565b166001600160a01b039091160361215f576001600160a01b0361232360208301611b02565b165f9081526001602052604090206001600160a01b0361234284611b02565b165f5260205260405f2060018060a01b0361235f60808401611b02565b165f5260205261237760405f20546060830135611a39565b801561258057806123a261238d60208501611b02565b61239686611b02565b61186560808701611b02565b1061214a5781355f52600260205260405f2060c08301355f5260205260405f20600160ff1982541617905560018060a01b036123e060208401611b02565b165f9081526001602052604090206001600160a01b036123ff85611b02565b165f5260205260405f2060018060a01b0361241c60808501611b02565b165f5260205260405f20612431828254611d65565b90556001600160a01b0361244760208401611b02565b165f9081526020819052604090206001600160a01b0361246685611b02565b165f5260205260405f2060018060a01b0361248360808501611b02565b165f5260205260405f20612498828254611a39565b90556124f56020826001600160a01b036124b460808701611b02565b166124be87611b02565b60405163a9059cbb60e01b81526001600160a01b0390911660048201526024810192909252909283919082905f9082906044820190565b03925af1801561213f57612561575b507f3e6da3303d2cc128089d7663a02408ba61a448a9d1ac9d55d29f5bd8b5043d47604061253d61253760208601611b02565b95611b02565b815160c0860135815260208101949094526001600160a01b039081169516933592a4565b6125799060203d6020116102bc576102ad8183611960565b505f612504565b505050565b61258d612a3c565b612595612aa6565b916040519260208401927f8b73c3c69bb8fe3d512ecc4cf759cc79239f7b179b0ffacaa9a75d522b39400f8452604085015260608401524660808401523060a084015260a0835260c08301918383106001600160401b038411176119305760429360e291846040528151902061190160f01b855260c282015201522090565b5f80516020612aec833981519152546001600160a01b0316330361263457565b60405163118cdaa760e01b8152336004820152602490fd5b90600182811c9216801561267a575b602083101461266657565b634e487b7160e01b5f52602260045260245ffd5b91607f169161265b565b604051905f827fa16a46d94261c7517cc8ff89f61c0ce93598e3c849801011dee649a6a557d102918254926126b88461264c565b8084529360209160019182811690811561274657506001146126e6575b5050506126e492500383611960565b565b5f9081527f42ad5d3e1f2e6e70edcf6d991b8a3023d3fca8047a131592f9edb9fd9b89d57d9590935091905b82841061272e57506126e49450505081016020015f80806126d5565b85548885018301529485019487945092810192612712565b92505050602092506126e494915060ff191682840152151560051b8201015f80806126d5565b604051905f827fa16a46d94261c7517cc8ff89f61c0ce93598e3c849801011dee649a6a557d103918254926127a08461264c565b8084529360209160019182811690811561274657506001146127cb575050506126e492500383611960565b5f9081527f5f9ce34815f8e11431c7bb75a8e6886a91478f7ffc1dbb0a98dc240fddd76b759590935091905b82841061281357506126e49450505081016020015f80806126d5565b855488850183015294850194879450928101926127f7565b815191906041830361285b576128549250602082015190606060408401519301515f1a906129ba565b9192909190565b50505f9160029190565b60048110156128d45780612877575050565b600181036128915760405163f645eedf60e01b8152600490fd5b600281036128b25760405163fce698f760e01b815260048101839052602490fd5b6003146128bc5750565b602490604051906335e2f38360e21b82526004820152fd5b634e487b7160e01b5f52602160045260245ffd5b60ff7ff0c57e16840df040f15088dc2f81fe391c3923bec73e23a9662efc9c229c6a005460401c161561291757565b604051631afcd79f60e31b8152600490fd5b905f8091602081519101845af480806129a7575b1561295d5750506040513d81523d5f602083013e60203d82010160405290565b1561298457604051639996b31560e01b81526001600160a01b039091166004820152602490fd5b3d15612995576040513d5f823e3d90fd5b60405163d6bda27560e01b8152600490fd5b503d15158061293d5750813b151561293d565b91907f7fffffffffffffffffffffffffffffff5d576e7357a4501ddfe92f46681b20a08411612a31579160209360809260ff5f9560405194855216868401526040830152606082015282805260015afa1561213f575f516001600160a01b03811615612a2757905f905f90565b505f906001905f90565b5050505f9160039190565b612a44612684565b8051908115612a54576020012090565b50507fa16a46d94261c7517cc8ff89f61c0ce93598e3c849801011dee649a6a557d100548015612a815790565b507fc5d2460186f7233c927e7db2dcc703c0e500b653ca82273b7bfad8045d85a47090565b612aae61276c565b8051908115612abe576020012090565b50507fa16a46d94261c7517cc8ff89f61c0ce93598e3c849801011dee649a6a557d101548015612a81579056fe9016d09d72d40fdae2fd8ceac6b6234c7706214fd39c1cd1e609a0528c199300360894a13ba1a3210667c828492db98dca3e2076cc3735a920a3ca505d382bbc9b779b17422d0df92223018b32b4d1fa46e071723d6817e2486d003becc55f00a26469706673582212208d8390457fde072982606b64550cbe8ff58adb44c5b9fb3006ea131d8a76f30b64736f6c63430008180033","linkReferences":{}},"methodIdentifiers":{"MAX_DEPOSIT()":"dd5967c3","THAW_PERIOD()":"9c8a63af","UPGRADE_INTERFACE_VERSION()":"ad3cb1cc","authorizationUsed(address,bytes32)":"162ce8bc","claimVoucher((bytes32,address,address,uint256,address,uint64,uint256,address,uint256),bytes)":"4496eb00","claimVoucherBatch((bytes32,address,address,uint256,address,uint64,uint256,address,uint256)[],bytes[])":"3d6a71d2","claimedAmounts(address,address,address)":"c4000481","deposit(address,address,uint256)":"8340f549","depositWithAuthorization((address,address,address,uint256,uint256,uint256,bytes32),bytes)":"86906267","depositWithPermit(address,address,uint256,uint256,uint8,bytes32,bytes32)":"8ef59739","deposits(address,address,address)":"ee2578ab","eip712Domain()":"84b0196e","flush((address,address,address,uint256,uint256,bytes32),bytes)":"5d249737","getAvailableBalance(address,address,address)":"10a9248e","getClaimedAmount(address,address,address)":"2b74ab92","getDepositAmount(address,address,address)":"56ade9ee","getImplementation()":"aaf10f42","initialize(address)":"c4d66de8","owner()":"8da5cb5b","proxiableUUID()":"52d1902d","renounceOwnership()":"715018a6","thaw(address,address,uint256)":"f93f1cd0","thaws(address,address,address)":"d711dfb4","transferOwnership(address)":"f2fde38b","upgradeToAndCall(address,bytes)":"4f1ef286","version()":"54fd4d50","voucherClaimed(bytes32,uint256)":"06181c7e","withdraw(address,address)":"f940e385"},"id":29}